:020000040800F2
:1000000000500020E50D00086D0D0008750D00087A
:100010007D0D0008850D00088D0D00080000000012
:10002000000000000000000000000000950D000826
:10003000A10D000800000000AD0D0008B90D00087A
:100040002D0E00082D0E00082D0E00082D0E0008A4
:100050002D0E00082D0E00082D0E00082D0E000894
:100060002D0E00082D0E00082D0E00082D0E000884
:100070002D0E00082D0E00082D0E00082D0E000874
:100080002D0E00082D0E00082D0E00082D0E000864
:100090002D0E00082D0E00082D0E00082D0E000854
:1000A0002D0E00082D0E00082D0E00082D0E000844
:1000B0002D0E00082D0E00082D0E00082D0E000834
:1000C0002D0E00082D0E00082D0E0008C50D00088D
:1000D0002D0E00082D0E00082D0E00082D0E000814
:1000E0002D0E00082D0E00082D0E00080000000047
:1000F0000000000000000000000000000000000000
:0C01000000000000000000005FF808F1A3
:10010C0010B5054C237833B9044B13B10448AFF345
:10011C0000800123237010BD14000020000000009B
:10012C007C33000808B5034B1BB103490348AFF3FC
:10013C00008008BD00000000180000207C3300087F
:10014C0080B400AF094BDB68084A43F08073D3607E
:10015C00074B00225A60064B1B68054A43F001030B
:10016C00136000BFBD4680BC704700BFF0ED00E0DF
:10017C00001000E080B485B000AF78600D4B1B68B8
:10018C000D4AA2FB03239A0C7B6802FB03F3FB6072
:10019C000A4B5B68BB6000BF084B5A68BB68D31A3C
:1001AC00FA689A42F8D800BF00BF1437BD4680BC2D
:1001BC00704700BF0800002083DE1B43001000E0E6
:1001CC0080B586B000AF134B9B69124A43F0100305
:1001DC009361104B9B6903F010037B607B6807F104
:1001EC00080300221A605A609A60DA604FF40053D8
:1001FC00BB600123FB6000233B6102237B6107F1A1
:10020C0008031946044801F071FC00BF1837BD46BD
:10021C0080BD00BF001002400010014080B584B0CA
:10022C0000AF1C4B9B691B4A43F400739361194B41
:10023C009B6903F400733B603B68174B174A1A60C9
:10024C00154B00229A60144B00221A73124B002299
:10025C001A75114B4FF46022DA610F4B00225A6071
:10026C000D4B01221A610C4800F062FE3B1D00226E
:10027C001A605A609A6000237B600123BB600323E1
:10028C00FB603B1D1946044801F016F900BF1037FE
:10029C00BD4680BD0010024030000020002401400B
:1002AC0080B582B000AF0A4800F01AFF4FF0FF3162
:1002BC00074800F0EFFF064801F0F2F80346FB8018
:1002CC00034800F0BBFFFB8818460837BD4680BDCD
:1002DC003000002080B582B000AF164B9B69154AE8
:1002EC0043F480439361134B9B6903F480437B601D
:1002FC007B68114B114A1A600F4B4FF461225A6004
:10030C000D4B00229A600C4B0022DA600A4B002243
:10031C001A61094B0C225A61074B00229A61064B59
:10032C000022DA61044802F019FF00BF0837BD460D
:10033C0080BD00BF00100240B80000200038014012
:10034C0080B586B000AF404B9B693F4A43F0080331
:10035C0093613D4B9B6903F008037B607B6807F15D
:10036C00080300221A605A609A60DA604EF2180391
:10037C00BB600123FB6000233B6103237B6107F11E
:10038C0008031946314801F0B1FB41F6E133BB607B
:10039C0007F1080319462D4801F0A8FB0623BB60A2
:1003AC0007F1080319462A4801F0A0FB40F202436A
:1003BC00BB6007F108031946244801F097FB0122A2
:1003CC000121224801F016FD012220211F4801F0D5
:1003DC0011FD012280211D4801F00CFD0122042198
:1003EC001B4801F007FD01224FF40061174801F092
:1003FC0001FD01224FF48051144801F0FBFC012255
:10040C004021124801F0F6FC01220221104801F0B3
:10041C00F1FC01224FF480710C4801F0EBFC01223D
:10042C004FF40071094801F0E5FC01224FF48061A2
:10043C00064801F0DFFC00220221044801F0DAFC3E
:10044C0000BF1837BD4680BD00100240000C0140B3
:10045C000008014080B582B000AF0346FB71FB7908
:10046C0003F00103DBB21A4610211B4801F0C2FC59
:10047C00FB795B10DBB203F00103DBB21A460821F7
:10048C00154801F0B7FCFB799B10DBB203F00103BC
:10049C00DBB21A464FF400410F4801F0ABFCFB797C
:1004AC00DB10DBB203F00103DBB21A464FF48041E0
:1004BC00094801F09FFCFB791B11DBB203F001032F
:1004CC00DBB21A464FF40051034801F093FC00BF15
:1004DC000837BD4680BD00BF000C014080B483B01E
:1004EC0000AF0346FB71FB790F2B03D8FB7910335C
:1004FC00DBB210E0FB791F2B04D8FB79C3F11F038F
:10050C00DBB208E0FB792F2B01D8FB7903E0FB79F8
:10051C00C3F16F03DBB218460C37BD4680BC704785
:10052C0080B483B000AF03460A46FB711346BB711F
:10053C00BB791F2B0BD8FB790F2B03D8FB7910330E
:10054C00DBB20DE0FB79C3F11F03DBB208E0FB79F2
:10055C000F2B01D8FB7903E0FB79C3F12F03DBB23E
:10056C0018460C37BD4680BC7047000080B584B07F
:10057C0000AF03460A46FB711346BB71FB791F2B78
:10058C0094BF01230023DBB2FB73BB79DB08BB7385
:10059C0001224FF48071664801F02CFC01224FF4CB
:1005AC000071634801F026FCFB7B002B02D04FF45A
:1005BC00807301E04FF40073002219465C4801F08F
:1005CC0019FCFA79BB7911461846FFF7A9FF0346C7
:1005DC007B737B7B1846FFF73DFF0120FFF7CAFDBD
:1005EC0000224FF48061524801F004FC0120FFF717
:1005FC00C1FD01224FF480614D4801F0FBFB01224B
:10060C004FF480714A4801F0F5FB01224FF4007160
:10061C00474801F0EFFBFB791846FFF71BFF012061
:10062C00FFF7A8FD00224FF48061414801F0E2FB86
:10063C000120FFF79FFD01224FF480613C4801F03F
:10064C00D9FB01224FF40061394801F0D3FB0122A0
:10065C004FF48051364801F0CDFB01224021344843
:10066C0001F0C8FB01220221324801F0C3FB012238
:10067C0001212F4801F0BEFB012220212C4801F062
:10068C00B9FB012280212A4801F0B4FB012204218C
:10069C00284801F0AFFBFB7B002B23D0BB7B022B4C
:1006AC0014D0022B18DC002B02D0012B07D013E046
:1006BC0000224FF400611E4801F09CFB34E0002244
:1006CC004FF480511A4801F095FB2DE00022402197
:1006DC00174801F08FFB27E000220221154801F09A
:1006EC0089FB21E0BB7B022B12D0022B16DC002BEA
:1006FC0002D0012B06D011E0002201210C4801F0A0
:10070C0079FB11E000222021094801F073FB0BE07A
:10071C0000228021064801F06DFB05E00022042137
:10072C00044801F067FB00BF00BF1037BD4680BD19
:10073C00000C01400008014080B584B000AF786027
:10074C000023FB7328E00023BB731FE0BB7B184620
:10075C00FFF7C4FE03467B73FA7B7B7B114618467E
:10076C00FFF704FF0A20FFF705FDFFF799FDFFF7E0
:10077C0097FD03467B81FB7BDB017A681344BA7BD4
:10078C00798923F81210BB7B0133BB73BB7B3F2BE6
:10079C00DCD9FB7B0133FB73FB7B1F2BD3D900BF55
:1007AC0000BF1037BD4680BD80B500AF4FF400517F
:1007BC00044801F037FB4FF4FA7000F095FB00BFD2
:1007CC0080BD00BF0010014080B500AF00F02AFBD7
:1007DC0000F03EF800F032F900F096F800F004F961
:1007EC0000F0D0F8FFF7ECFCFFF7AAFCFFF7A8FD30
:1007FC00FFF714FDFFF76EFD4FF47A7000F074FBF9
:10080C00FFF7D2FFBFF35F8F00BF0C4B00221A70B3
:10081C000B4B19684FF480530A4A0B4802F01CF931
:10082C000A4B1B681846FFF787FFBFF35F8F00BFAB
:10083C00024B01221A7000BFF2E700BF003100200A
:10084C0000000020000100206000002004000020B7
:10085C0080B594B000AF07F1280328220021184678
:10086C0002F05AFD07F1140300221A605A609A60D4
:10087C00DA601A613B1D00221A605A609A60DA60D5
:10088C000123BB624FF48033FB6200233B630123E3
:10089C00BB6302237B644FF48033BB644FF4E013DF
:1008AC00FB6407F12803184601F0D6FA0346002B27
:1008BC0001D000F043F90F237B610223BB610023BD
:1008CC00FB614FF480633B6200237B6207F11403EE
:1008DC000221184601F042FD0346002B01D000F026
:1008EC002DF902237B604FF40043FB603B1D18463F
:1008FC0001F0C2FE0346002B01D000F01FF900BF2F
:10090C005037BD4680BD000080B584B000AF3B1DA4
:10091C0000221A605A609A60184B194A1A60174BD9
:10092C0000229A60154B00221A73144B00221A7580
:10093C00124B4FF46022DA61104B00225A600F4BBD
:10094C0001221A610D4800F0F3FA0346002B01D086
:10095C0000F0F4F800237B600123BB600023FB60F4
:10096C003B1D1946054800F0A7FD0346002B01D09E
:10097C0000F0E4F800BF1037BD4680BD3000002009
:10098C000024014080B500AF154B164A1A60144B79
:10099C0000225A60124B00229A60114B0022DA603E
:1009AC000F4B00221A610E4B00225A610C4B002295
:1009BC009A610B4B00221A62094B00225A62084BB7
:1009CC0000229A62064B0A22DA62054801F0C0FF47
:1009DC000346002B01D000F0B1F800BF80BD00BF72
:1009EC00600000200030014080B500AF114B124A6E
:1009FC001A60104B4FF4E1325A600E4B00229A6091
:100A0C000C4B0022DA600B4B00221A61094B0C22B2
:100A1C005A61084B00229A61064B0022DA610548A4
:100A2C0002F09CFB0346002B01D000F087F800BFBE
:100A3C0080BD00BFB80000200038014080B588B0F0
:100A4C0000AF07F1100300221A605A609A60DA6056
:100A5C001E4B9B691D4A43F0100393611B4B9B6912
:100A6C0003F01003FB60FB68184B9B69174A43F0BB
:100A7C0020039361154B9B6903F02003BB60BB689B
:100A8C00124B9B69114A43F0040393610F4B9B6912
:100A9C0003F004037B607B6800224FF400510C4888
:100AAC0001F0A8F94FF400533B6101237B61002353
:100ABC00BB610223FB6107F110031946044801F0E6
:100ACC0015F800BF2037BD4680BD00BF00100240A6
:100ADC000010014080B584B000AF78607B681B6863
:100AEC00104A934219D1104B1B78DBB2002B0CD05F
:100AFC000E4B1B68FB600E4B1B680C4A13600C4AB8
:100B0C00FB681360084B00221A70084B19684FF4ED
:100B1C008053084A084801F09FFF00BF1037BD46BC
:100B2C0080BD00BF003001400031002000000020DB
:100B3C0004000020000100206000002080B400AF01
:100B4C0072B600BF00BFFDE780B485B000AF154B97
:100B5C009B69144A43F001039361124B9B6903F0A8
:100B6C000103BB60BB680F4BDB690E4A43F080533B
:100B7C00D3610C4BDB6903F080537B607B680A4BC1
:100B8C005B68FB60FB6823F0E063FB60FB6843F091
:100B9C000073FB60044AFB68536000BF1437BD460A
:100BAC0080BC7047001002400000014080B588B046
:100BBC0000AF786007F1100300221A605A609A6047
:100BCC00DA607B681B68144A934221D1134B9B69F2
:100BDC00124A43F400739361104B9B6903F4007346
:100BEC00FB60FB680D4B9B690C4A43F0040393615B
:100BFC000A4B9B6903F00403BB60BB6801233B6198
:100C0C0003237B6107F110031946054800F06EFFC2
:100C1C0000BF2037BD4680BD0024014000100240BB
:100C2C000008014080B588B000AF786007F1100370
:100C3C0000221A605A609A60DA607B681B681F4A4F
:100C4C00934237D11E4B9B691D4A43F480539361E9
:100C5C001B4B9B6903F48053FB60FB68184B9B692F
:100C6C00174A43F004039361154B9B6903F004038B
:100C7C00BB60BB68B0233B6100237B610023BB617D
:100C8C0007F1100319460F4800F030FF40233B6179
:100C9C0002237B610323FB6107F11003194609480A
:100CAC0000F024FF00220021232000F070FE2320FE
:100CBC0000F089FE00BF2037BD4680BD00300140EA
:100CCC00001002400008014080B588B000AF786089
:100CDC0007F1100300221A605A609A60DA607B6890
:100CEC001B681C4A934231D11B4B9B691A4A43F433
:100CFC0080439361184B9B6903F48043FB60FB6852
:100D0C00154B9B69144A43F004039361124B9B6986
:100D1C0003F00403BB60BB684FF400733B61022318
:100D2C007B610323FB6107F1100319460B4800F0AC
:100D3C00DDFE4FF480633B6100237B610023BB61CC
:100D4C0007F110031946054800F0D0FE00BF20370C
:100D5C00BD4680BD00380140001002400008014033
:100D6C0080B400AF00BFFDE780B400AF00BFFDE76B
:100D7C0080B400AF00BFFDE780B400AF00BFFDE75B
:100D8C0080B400AF00BFFDE780B400AF00BFBD462C
:100D9C0080BC704780B400AF00BFBD4680BC7047BC
:100DAC0080B400AF00BFBD4680BC704780B500AFBB
:100DBC0000F07EF800BF80BD80B500AF024801F0A6
:100DCC00D9FE00BF80BD00BF6000002080B400AF22
:100DDC0000BFBD4680BC7047FFF7F8FF0B480C49BD
:100DEC000C4A002302E0D458C4500433C4188C427B
:100DFC00F9D3094A094C002301E013600432A242E2
:100E0C00FBD302F091FAFFF7DFFC704700000020E3
:100E1C0014000020DC3300081400002008310020EE
:100E2C00FEE7000080B500AF084B1B68074A43F093
:100E3C0010031360032000F09FFD0F2000F008F852
:100E4C00FFF782FE0023184680BD00BF0020024041
:100E5C0080B582B000AF7860124B1A68124B1B78C9
:100E6C0019464FF47A73B3FBF1F3B2FBF3F3184664
:100E7C0000F0B7FD0346002B01D001230EE07B6888
:100E8C000F2B0AD8002279684FF0FF3000F07FFD5D
:100E9C00064A7B681360002300E0012318460837DC
:100EAC00BD4680BD08000020100000200C00002072
:100EBC0080B400AF054B1B781A46054B1B681344D6
:100ECC00034A136000BFBD4680BC70471000002071
:100EDC000431002080B400AF024B1B681846BD469D
:100EEC0080BC70470431002080B584B000AF7860BE
:100EFC00FFF7F0FFB8607B68FB60FB68B3F1FF3F66
:100F0C0005D00A4B1B781A46FB681344FB6000BFE4
:100F1C00FFF7E0FF0246BB68D31AFA689A42F7D88B
:100F2C0000BF00BF1037BD4680BD00BF10000020C1
:100F3C0080B586B000AF78600023FB7500233B6161
:100F4C000023BB600023FB607B68002B01D10123D5
:100F5C00BEE07B689B68002B7B689B6A002B09D1E9
:100F6C007B680022DA627B68002283F82420786890
:100F7C00FFF71CFE786800F0F1FB0346FB757B68FD
:100F8C009B6A03F01003002B40F09980FB7D002B33
:100F9C0040F095807B689B6A23F4885323F002030E
:100FAC0043F002027B689A627B685A687B68DB6953
:100FBC001A437B681B7B5B001343BA681343BB600B
:100FCC007B689B68B3F5807F03D07B689B68012BA3
:100FDC0002D14FF4807300E000233A6913433B6164
:100FEC007B681B7D012B19D17B681B7B002B09D1E6
:100FFC007B689B69013B5A033B69134343F40063D1
:10100C003B610BE07B689B6A43F020027B689A6231
:10101C007B68DB6A43F001027B68DA627B681B68E1
:10102C005B6823F469417B681B683A690A435A6020
:10103C007B681B689A68284B13407A681268B968F9
:10104C000B4393607B689B68B3F5807F03D07B6810
:10105C009B68012B04D17B681B69013B1B05FB6062
:10106C007B681B68DB6A23F470017B681B68FA6879
:10107C000A43DA627B681B689A68184B1340BA689B
:10108C009A420BD17B680022DA627B689B6A23F060
:10109C00030343F001027B689A6218E07B689B6A49
:1010AC0023F0120343F010027B689A627B68DB6AC0
:1010BC0043F001027B68DA620123FB7507E07B6871
:1010CC009B6A43F010027B689A620123FB75FB7DDF
:1010DC0018461837BD4680BDFDF7E1FFFE0E1FFF19
:1010EC0080B584B000AF78600023FB737B6893F805
:1010FC002430012B01D1022398E07B68012283F874
:10110C002420786800F0D0FA0346FB73FB7B002B9D
:10111C0040F087807B689B6A23F4407323F00103C3
:10112C0043F480727B689A627B681B68414A9342E5
:10113C0005D1414B5B6803F47023002B15D17B6800
:10114C009B6A23F480127B689A627B681B685B68DD
:10115C0003F48063002B26D07B689B6A23F44053F6
:10116C0043F480527B689A621DE07B689B6A43F46F
:10117C0080127B689A627B681B682F4A934204D06A
:10118C007B681B682B4A93420DD12B4B5B6803F495
:10119C008063002B07D07B689B6A23F4405343F495
:1011AC0080527B689A627B689B6A03F48053002BA5
:1011BC0006D07B68DB6A23F006027B68DA6202E009
:1011CC007B680022DA627B68002283F824207B682B
:1011DC001B686FF002021A607B681B689B6803F443
:1011EC006023B3F5602F13D17B681B68114A9342BF
:1011FC0005D1114B5B6803F47023002B08D17B687D
:10120C001B689A687B681B6842F4A0029A600CE029
:10121C007B681B689A687B681B6842F480129A6032
:10122C0003E07B68002283F82420FB7B18461037F0
:10123C00BD4680BD002801400024014080B584B02B
:10124C0000AF78600023FB737B6893F82430012B8C
:10125C0001D102231AE07B68012283F824207868EC
:10126C0000F07CFA0346FB73FB7B002B09D17B68F7
:10127C009B6A23F4885323F0010343F001027B683B
:10128C009A627B68002283F82420FB7B1846103777
:10129C00BD4680BD90B587B000AF78603960002343
:1012AC007B610023FB6000233B61FFF713FE786139
:1012BC007B681B689B6803F48073002B0BD07B68E6
:1012CC009B6A43F020027B689A627B68002283F859
:1012DC0024200123D3E07B681B685B6803F48073D4
:1012EC00002B31D17B681B68DB6A03F47003002B85
:1012FC002AD121E03B68B3F1FF3F1DD03B68002BA6
:10130C0007D0FFF7E7FD02467B69D31A3A689A4289
:10131C0012D27B681B681B6803F00203002B0BD1F5
:10132C007B689B6A43F004027B689A627B680022AC
:10133C0083F824200323A2E07B681B681B6803F05E
:10134C000203002BD6D070E04F4B1C68022001F03A
:10135C0049FA0346B4FBF3F27B681B6819694B4BE3
:10136C000B40002B18D17B681B68D968484B0B408D
:10137C00002B11D17B681B681969464B0B40002B65
:10138C0008D17B681B68D968434B0B40002B01D1FB
:10139C00142320E029231EE07B681B6819693D4B50
:1013AC000B40002B06D17B681B68D9683A4B0B406D
:1013BC00002B0DD07B681B681969384B0B40002B38
:1013CC0008D17B681B68D968344B0B40002B01D1CA
:1013DC00542300E0FC2302FB03F33B6121E03B6858
:1013EC00B3F1FF3F1AD03B68002B07D0FFF772FD1B
:1013FC0002467B69D31A3A689A420FD2FB683A6963
:10140C009A420BD97B689B6A43F004027B689A6210
:10141C007B68002283F82420032330E0FB6801332F
:10142C00FB60FB683A699A42D9D87B681B686FF0FD
:10143C0012021A607B689B6A43F400727B689A62A2
:10144C007B681B689B6803F46023B3F5602F15D190
:10145C007B681B7B002B11D17B689B6A23F4807209
:10146C007B689A627B689B6A03F48053002B05D1DE
:10147C007B689B6A43F001027B689A6200231846E2
:10148C001C37BD4690BD00BF0800002024499224A3
:10149C002449920092244912922449004992240032
:1014AC0080B483B000AF78607B681B68DB6C184637
:1014BC000C37BD4680BC704780B485B000AF7860F7
:1014CC0039600023FB730023BB607B6893F82430E6
:1014DC00012B01D10223DCE07B68012283F824205C
:1014EC003B685B68062B1CD87B681B68596B3B6898
:1014FC005A6813469B001344053B1F2202FA03F360
:10150C00DB4319403B6818683B685A6813469B00DC
:10151C001344053B00FA03F27B681B680A435A63C9
:10152C003CE03B685B680C2B1CD87B681B68196B18
:10153C003B685A6813469B001344233B1F2202FA54
:10154C0003F3DB4319403B6818683B685A68134641
:10155C009B001344233B00FA03F27B681B680A438D
:10156C001A631BE07B681B68D96A3B685A68134690
:10157C009B001344413B1F2202FA03F3DB43194047
:10158C003B6818683B685A6813469B001344413B00
:10159C0000FA03F27B681B680A43DA623B681B683B
:1015AC00092B1CD97B681B68D9683B681A681346E1
:1015BC005B0013441E3B072202FA03F3DB43194082
:1015CC003B6898683B681A6813465B0013441E3BE3
:1015DC0000FA03F27B681B680A43DA6019E07B6847
:1015EC001B6819693B681A6813465B001344072291
:1015FC0002FA03F3DB4319403B6898683B681A68AE
:10160C0013465B00134400FA03F27B681B680A4321
:10161C001A613B681B68102B03D03B681B68112BAD
:10162C0032D17B681B681D4A934225D17B681B68AD
:10163C009B6803F40003002B26D17B681B689A6817
:10164C007B681B6842F400029A603B681B68102B95
:10165C001AD1134B1B68134AA2FB03239A0C134693
:10166C009B0013445B00BB6002E0BB68013BBB60AA
:10167C00BB68002BF9D107E07B689B6A43F0200222
:10168C007B689A620123FB737B68002283F8242019
:10169C00FB7B18461437BD4680BC704700240140C4
:1016AC000800002083DE1B4380B584B000AF786057
:1016BC000023FB600023BB607B681B689B6803F006
:1016CC000103012B40D07B681B689A687B681B6800
:1016DC0042F001029A601F4B1B681F4AA2FB0323B6
:1016EC009B0CBB6002E0BB68013BBB60BB68002B82
:1016FC00F9D1FFF7EFFBF8601FE0FFF7EBFB0246B9
:10170C00FB68D31A022B18D97B681B689B6803F003
:10171C000103012B11D07B689B6A43F010027B689C
:10172C009A627B68DB6A43F001027B68DA627B6851
:10173C00002283F82420012307E07B681B689B6848
:10174C0003F00103012BD8D1002318461037BD46F6
:10175C0080BD00BF0800002083DE1B4380B584B031
:10176C0000AF78600023FB607B681B689B6803F00C
:10177C000103012B2ED17B681B689A687B681B6860
:10178C0022F001029A60FFF7A5FBF8601BE0FFF75F
:10179C00A1FB0246FB68D31A022B14D97B681B6889
:1017AC009B6803F00103012B0DD17B689B6A43F00E
:1017BC0010027B689A627B68DB6A43F001027B68EB
:1017CC00DA62012307E07B681B689B6803F0010366
:1017DC00012BDCD0002318461037BD4680BD00001D
:1017EC0080B485B000AF78607B6803F00703FB60C2
:1017FC000C4BDB68BB60BA684FF6FF031340BB6051
:10180C00FB681A02BB68134343F0BF6343F4003315
:10181C00BB60044ABB68D36000BF1437BD4680BCB4
:10182C00704700BF00ED00E080B400AF044BDB68F4
:10183C001B0A03F007031846BD4680BC704700BF67
:10184C0000ED00E080B483B000AF0346FB7197F964
:10185C000730002B0BDBFB7903F01F02064997F9CD
:10186C0007305B09012000FA02F241F8232000BF87
:10187C000C37BD4680BC704700E100E080B483B0FB
:10188C0000AF03463960FB7197F90730002B0ADB78
:10189C003B68DAB20C4997F907301201D2B20B440B
:1018AC0083F800230AE03B68DAB20849FB7903F0BD
:1018BC000F03043B1201D2B20B441A7600BF0C3753
:1018CC00BD4680BC704700BF00E100E000ED00E0C9
:1018DC0080B489B000AFF860B9607A60FB6803F03F
:1018EC000703FB61FB69C3F10703042B28BF042327
:1018FC00BB61FB690433062B02D9FB69033B00E097
:10190C0000237B614FF0FF32BB6902FA03F3DA4329
:10191C00BB681A407B699A404FF0FF317B6901FA32
:10192C0003F3D9437B680B40134318462437BD4659
:10193C0080BC704780B582B000AF78607B68013B9B
:10194C00B3F1807F01D301230FE00A4A7B68013B8E
:10195C0053600F214FF0FF30FFF790FF054B002233
:10196C009A60044B07221A60002318460837BD46BC
:10197C0080BD00BF10E000E080B582B000AF7860A1
:10198C007868FFF72DFF00BF0837BD4680BD80B5D6
:10199C0086B000AF0346B9607A60FB7300237B61AD
:1019AC00FFF742FF78617A68B9687869FFF790FFB2
:1019BC00024697F90F3011461846FFF75FFF00BF3C
:1019CC001837BD4680BD80B582B000AF0346FB71B1
:1019DC0097F907301846FFF735FF00BF0837BD46AB
:1019EC0080BD80B582B000AF78607868FFF7A2FF49
:1019FC00034618460837BD4680BD000080B584B04C
:101A0C0000AF78600023FB737B6893F82130DBB266
:101A1C00022B05D07B6804229A630123FB7351E0EF
:101A2C007B681B681A687B681B6822F00E021A60C0
:101A3C007B681B681A687B681B6822F001021A60BD
:101A4C007B681B68224A934229D07B681B68214A19
:101A5C00934222D07B681B681F4A93421AD07B6842
:101A6C001B681E4A934212D07B681B681C4A934227
:101A7C000AD07B681B681B4A934202D14FF4801337
:101A8C000EE04FF080730BE04FF4803308E04FF41E
:101A9C00805305E04FF4807302E0102300E0012333
:101AAC00114A53607B68012283F821207B68002255
:101ABC0083F820207B685B6B002B03D07B685B6B0F
:101ACC0078689847FB7B18461037BD4680BD00BF31
:101ADC00080002401C00024030000240440002405A
:101AEC00580002406C0002400000024080B48BB0F1
:101AFC0000AF7860396000237B6200233B6269E1B0
:101B0C0001227B6A02FA03F3FB613B681B68FA69EA
:101B1C001340BB61BA69FB699A4240F058813B683B
:101B2C005B689A4A93425ED0984A934275D8984A19
:101B3C00934258D0964A93426FD8964A934252D0C9
:101B4C00944A934269D8944A93424CD0924A934215
:101B5C0063D8924A934246D0904A93425DD8122B56
:101B6C002AD8122B59D801A252F823F0F31B0008E3
:101B7C00CD1B0008DF1B0008211C0008271C0008D7
:101B8C00271C0008271C0008271C0008271C00081D
:101B9C00271C0008271C0008271C0008271C00080D
:101BAC00271C0008271C0008271C0008271C0008FD
:101BBC00D51B0008E91B0008794A934213D02CE08E
:101BCC003B68DB683B6229E03B68DB6804333B62C3
:101BDC0024E03B68DB6808333B621FE03B68DB6852
:101BEC000C333B621AE03B689B68002B02D1042348
:101BFC003B6213E03B689B68012B05D108233B62D9
:101C0C007B68FA691A6109E008233B627B68FA6910
:101C1C005A6103E000233B6200E000BFBB69FF2B6D
:101C2C0001D87B6801E07B6804337B61BB69FF2BC7
:101C3C0002D87B6A9B0002E07B6A083B9B003B61FD
:101C4C007B691A680F213B6901FA03F3DB431A40E5
:101C5C00396A3B6901FA03F31A437B691A603B68E2
:101C6C005B6803F08053002B00F0B1804D4B9B69F7
:101C7C004C4A43F0010393614A4B9B6903F0010307
:101C8C00BB60BB68484A7B6A9B08023352F823301E
:101C9C00FB607B6A03F003039B000F2202FA03F341
:101CAC00DB43FA681340FB607B68404A934213D0D5
:101CBC007B683F4A93420DD07B683E4A934207D0E3
:101CCC007B683D4A934201D1032306E0042304E0E0
:101CDC00022302E0012300E000237A6A02F00302EF
:101CEC0092009340FA681343FB602F497B6A9B0870
:101CFC000233FA6841F823203B685B6803F48013D5
:101D0C00002B06D02D4B9A682C49BB6913438B6072
:101D1C0006E02A4B9A68BB69DB43284913408B6069
:101D2C003B685B6803F40013002B06D0234BDA6886
:101D3C002249BB691343CB6006E0204BDA68BB69D0
:101D4C00DB431E491340CB603B685B6803F40033F4
:101D5C00002B06D0194B5A681849BB6913434B60CA
:101D6C0006E0164B5A68BB69DB43144913404B60C1
:101D7C003B685B6803F48033002B21D00F4B1A684F
:101D8C000E49BB6913430B6021E000BF0000321009
:101D9C000000311000002210000021100000121071
:101DAC00000011100010024000000140000801402A
:101DBC00000C0140001001400014014000040140DF
:101DCC000B4B1A68BB69DB43094913400B607B6AF8
:101DDC0001337B623B681A687B6A22FA03F3002B9F
:101DEC007FF48EAE00BF00BF2C37BD4680BC704761
:101DFC000004014080B483B000AF78600B467B8058
:101E0C0013467B707B78002B03D07A887B681A6131
:101E1C0003E07B881A047B681A6100BF0C37BD464F
:101E2C0080BC704780B485B000AF78600B467B8077
:101E3C007B68DB68FB607A88FB6813401A04FB68DC
:101E4C00D9437B880B401A437B681A6100BF143757
:101E5C00BD4680BC7047000080B586B000AF78608E
:101E6C007B68002B01D1012372E27B681B6803F0B5
:101E7C000103002B00F08780924B5B6803F00C038E
:101E8C00042B0CD08F4B5B6803F00C03082B12D186
:101E9C008C4B5B6803F48033B3F5803F0BD1894BDB
:101EAC001B6803F40033002B6CD07B685B68002B41
:101EBC0068D101234CE27B685B68B3F5803F06D1A7
:101ECC00804B1B687F4A43F4803313602EE07B68A1
:101EDC005B68002B0CD17B4B1B687A4A23F4803354
:101EEC001360784B1B68774A23F4802313601DE042
:101EFC007B685B68B3F5A02F0CD1724B1B68714AE1
:101F0C0043F4802313606F4B1B686E4A43F4803399
:101F1C0013600BE06B4B1B686A4A23F4803313602D
:101F2C00684B1B68674A23F4802313607B685B68EB
:101F3C00002B13D0FEF7CEFF386108E0FEF7CAFF86
:101F4C0002463B69D31A642B01D9032300E25D4B93
:101F5C001B6803F40033002BF0D014E0FEF7BAFF3B
:101F6C00386108E0FEF7B6FF02463B69D31A642BD2
:101F7C0001D90323ECE1534B1B6803F40033002B12
:101F8C00F0D100E000BF7B681B6803F00203002B5C
:101F9C0063D04C4B5B6803F00C03002B0BD0494B0C
:101FAC005B6803F00C03082B1CD1464B5B6803F4F5
:101FBC008033002B16D1434B1B6803F00203002B1C
:101FCC0005D07B681B69012B01D00123C0E13D4B7F
:101FDC001B6823F0F8027B685B69DB00394913430B
:101FEC000B603AE07B681B69002B20D0364B01223A
:101FFC001A60FEF76FFF386108E0FEF76BFF0246D0
:10200C003B69D31A022B01D90323A1E12D4B1B6889
:10201C0003F00203002BF0D02A4B1B6823F0F802CC
:10202C007B685B69DB00274913430B6015E0264B8B
:10203C0000221A60FEF74EFF386108E0FEF74AFFF7
:10204C0002463B69D31A022B01D9032380E11D4BB5
:10205C001B6803F00203002BF0D17B681B6803F0B4
:10206C000803002B3AD07B689B69002B19D0174BC7
:10207C0001221A60FEF72EFF386108E0FEF72AFFF6
:10208C0002463B69D31A022B01D9032360E10D4BA5
:10209C005B6A03F00203002BF0D0012000F0CEFAB3
:1020AC001CE00A4B00221A60FEF714FF38610FE0A7
:1020BC00FEF710FF02463B69D31A022B08D9032303
:1020CC0046E100BF00100240000042428004424240
:1020DC00924B5B6A03F00203002BE9D17B681B680F
:1020EC0003F00403002B00F0A6800023FB758B4B40
:1020FC00DB6903F08053002B0DD1884BDB69874AD9
:10210C0043F08053D361854BDB6903F08053BB6094
:10211C00BB680123FB75824B1B6803F48073002B97
:10212C0018D17F4B1B687E4A43F480731360FEF713
:10213C00D1FE386108E0FEF7CDFE02463B69D31AAA
:10214C00642B01D9032303E1754B1B6803F48073E3
:10215C00002BF0D07B68DB68012B06D16F4B1B6A20
:10216C006E4A43F0010313622DE07B68DB68002BA1
:10217C000CD16A4B1B6A694A23F001031362674B4B
:10218C001B6A664A23F0040313621CE07B68DB685D
:10219C00052B0CD1614B1B6A604A43F0040313629C
:1021AC005E4B1B6A5D4A43F0010313620BE05B4B11
:1021BC001B6A5A4A23F001031362584B1B6A574A95
:1021CC0023F0040313627B68DB68002B15D0FEF749
:1021DC0081FE38610AE0FEF77DFE02463B69D31AA8
:1021EC0041F28832934201D90323B1E04B4B1B6A75
:1021FC0003F00203002BEED014E0FEF76BFE386107
:10220C000AE0FEF767FE02463B69D31A41F28832B8
:10221C00934201D903239BE0404B1B6A03F002035A
:10222C00002BEED1FB7D012B05D13C4BDB693B4AEE
:10223C0023F08053D3617B68DB69002B00F087802F
:10224C00364B5B6803F00C03082B61D07B68DB69B1
:10225C00022B46D1334B00221A60FEF73BFE38614D
:10226C0008E0FEF737FE02463B69D31A022B01D970
:10227C0003236DE0294B1B6803F00073002BF0D196
:10228C007B681B6AB3F5803F08D1244B5B6823F451
:10229C0000327B689B68214913434B601F4B5B6882
:1022AC0023F474127B68196A7B685B6A0B431B49C5
:1022BC0013434B601B4B01221A60FEF70BFE386177
:1022CC0008E0FEF707FE02463B69D31A022B01D940
:1022DC0003233DE0114B1B6803F00073002BF0D07F
:1022EC0035E0104B00221A60FEF7F4FD386108E06F
:1022FC00FEF7F0FD02463B69D31A022B01D90323EA
:10230C0026E0064B1B6803F00073002BF0D11EE097
:10231C007B68DB69012B07D1012319E00010024017
:10232C0000700040600042420B4B5B68FB60FB6836
:10233C0003F480327B681B6A9A4206D1FB6803F473
:10234C0070127B685B6A9A4201D0012300E0002383
:10235C0018461837BD4680BD0010024080B584B0C9
:10236C0000AF786039607B68002B01D10123D0E08D
:10237C006A4B1B6803F007033A689A4210D9674B03
:10238C001B6823F0070265493B6813430B60634BE2
:10239C001B6803F007033A689A4201D00123B8E0A6
:1023AC007B681B6803F00203002B20D07B681B6842
:1023BC0003F00403002B05D0594B5B68584A43F4D7
:1023CC00E06353607B681B6803F00803002B05D0A7
:1023DC00534B5B68524A43F460535360504B5B68F9
:1023EC0023F0F0027B689B684D4913434B607B687C
:1023FC001B6803F00103002B40D07B685B68012B4A
:10240C0007D1474B1B6803F40033002B15D1012374
:10241C007FE07B685B68022B07D1414B1B6803F0A4
:10242C000073002B09D1012373E03D4B1B6803F0B3
:10243C000203002B01D101236BE0394B5B6823F0C5
:10244C0003027B685B68364913434B60FEF742FD21
:10245C00F8600AE0FEF73EFD0246FB68D31A41F233
:10246C008832934201D9032353E02D4B5B6803F070
:10247C000C027B685B689B009A42EBD1274B1B6874
:10248C0003F007033A689A4210D2244B1B6823F0DE
:10249C00070222493B6813430B60204B1B6803F077
:1024AC0007033A689A4201D0012332E07B681B682B
:1024BC0003F00403002B08D0194B5B6823F4E06293
:1024CC007B68DB68164913434B607B681B6803F021
:1024DC000803002B09D0124B5B6823F460527B6815
:1024EC001B69DB000E4913434B6000F021F80246D8
:1024FC000B4B5B681B0903F00F030A49CB5C22FAF8
:10250C0003F3094A1360094B1B681846FEF7A0FC3D
:10251C00002318461037BD4680BD00BF0020024086
:10252C000010024094330008080000200C0000202A
:10253C0080B487B000AF0023FB600023BB60002396
:10254C007B6100237B6000233B611E4B5B68FB605F
:10255C00FB6803F00C03042B02D0082B03D027E0FC
:10256C00194B3B6127E0FB689B0C03F00F03174AE8
:10257C00D35C7B60FB6803F48033002B10D0114BD1
:10258C005B685B0C03F00103114AD35CBB607B6896
:10259C000D4A03FB02F2BB68B2FBF3F37B6104E070
:1025AC007B680C4A02FB03F37B617B693B6102E0B5
:1025BC00054B3B6100BF3B6918461C37BD4680BCD0
:1025CC00704700BF0010024000127A00AC330008C4
:1025DC00BC33000800093D0080B400AF024B1B68FF
:1025EC001846BD4680BC70470800002080B500AF7F
:1025FC00FFF7F2FF0246054B5B681B0A03F007036B
:10260C000349CB5C22FA03F3184680BD001002404C
:10261C00A433000880B500AFFFF7DEFF0246054B80
:10262C005B68DB0A03F007030349CB5C22FA03F374
:10263C00184680BD00100240A433000880B485B059
:10264C0000AF78600A4B1B680A4AA2FB03235B0AA3
:10265C007A6802FB03F3FB6000BFFB685A1EFA604A
:10266C00002BF9D100BF00BF1437BD4680BC7047AA
:10267C0008000020D34D621080B586B000AF7860A2
:10268C0000233B610023FB607B681B6803F00103A4
:10269C00002B7DD00023FB754F4BDB6903F080537F
:1026AC00002B0DD14C4BDB694B4A43F08053D3616B
:1026BC00494BDB6903F08053BB60BB680123FB759E
:1026CC00464B1B6803F48073002B18D1434B1B68DB
:1026DC00424A43F480731360FEF7FCFB386108E058
:1026EC00FEF7F8FB02463B69D31A642B01D903238E
:1026FC006DE03A4B1B6803F48073002BF0D0364B23
:10270C001B6A03F44073FB60FB68002B2ED07B68C4
:10271C005B6803F44073FA689A4227D02E4B1B6A0D
:10272C0023F44073FB602E4B01221A602C4B0022C9
:10273C001A60294AFB681362FB6803F00103002B43
:10274C0014D0FEF7C7FB38610AE0FEF7C3FB024664
:10275C003B69D31A41F28832934201D9032336E004
:10276C001D4B1B6A03F00203002BEED01A4B1B6AA5
:10277C0023F440727B685B68174913430B62FB7D43
:10278C00012B05D1144BDB69134A23F08053D36121
:10279C007B681B6803F00203002B08D00E4B5B68B0
:1027AC0023F440427B689B680B4913434B607B6866
:1027BC001B6803F01003002B08D0074B5B6823F455
:1027CC0080027B68DB68044913434B600023184686
:1027DC001837BD4680BD00BF00100240007000409D
:1027EC004004424280B588B000AF786000237B6122
:1027FC000023FB6100233B610023FB600023BB61D2
:10280C007B68102B0AD07B68102B00F28A807B68C7
:10281C00012B45D07B68022B75D082E0464B5B6860
:10282C00FB60454B1B6803F08073002B7BD0FB686F
:10283C009B0C03F00F03414AD35C3B61FB6803F430
:10284C008033002B15D03C4B5B685B0C03F0010311
:10285C003B4AD35C7B61FB6803F48033002B0DD0C7
:10286C00384A7B69B2FBF3F23B6902FB03F3FB6171
:10287C0004E03B69344A02FB03F3FB612E4B5B68BB
:10288C0003F48003B3F5800F02D1FB69BB614AE00E
:10289C00FB695B002D4AA2FB03235B08BB6142E092
:1028AC00254B1B6AFB60FB6803F44073B3F5807F18
:1028BC0008D1FB6803F00203002B03D04FF4004354
:1028CC00BB611FE0FB6803F44073B3F5007F09D1D3
:1028DC00194B5B6A03F00203002B03D049F640430B
:1028EC00BB610FE0FB6803F44073B3F5407F1CD170
:1028FC00114B1B6803F40033002B16D04FF224430A
:10290C00BB6112E011E0FFF785FE02460A4B5B68E3
:10291C009B0B03F0030301335B00B2FBF3F3BB61CE
:10292C0004E000BF02E000BF00E000BFBB69184636
:10293C002037BD4680BD00BF00100240C0330008E8
:10294C00D033000800127A0000093D00ABAAAAAAF5
:10295C0080B582B000AF78607B68002B01D1012379
:10296C0076E07B685B6A002B08D17B685B68B3F50B
:10297C00827F09D07B680022DA6105E07B68002247
:10298C001A617B6800225A617B6800229A627B681C
:10299C0093F85130DBB2002B06D17B68002283F810
:1029AC0050207868FEF73EF97B68022283F85120AC
:1029BC007B681B681A687B681B6822F040021A60EF
:1029CC007B685B6803F482727B689B6803F4044346
:1029DC001A437B68DB6803F400631A437B681B694A
:1029EC0003F002031A437B685B6903F001031A438B
:1029FC007B689B6903F400731A437B68DB6903F003
:102A0C0038031A437B681B6A03F0800342EA030114
:102A1C007B689B6A03F400527B681B680A431A604C
:102A2C007B689B691A0C7B681B6802F004025A6075
:102A3C007B681B68DA697B681B6822F40062DA61C8
:102A4C007B6800225A657B68012283F851200023A1
:102A5C0018460837BD4680BD80B487B000AFF8601B
:102A6C00B9607A607B80FB6893F85130FB75FB682A
:102A7C005B683B61FB7D012B0CD03B69B3F5827F1E
:102A8C0006D1FB689B68002B02D1FB7D042B01D087
:102A9C00022361E0BB68002B05D07B68002B02D0C1
:102AAC007B88002B01D1012356E0FB6893F8503052
:102ABC00012B01D102234FE0FB68012283F8502047
:102ACC00FB6893F85130DBB2042B03D0FB68052272
:102ADC0083F85120FB6800225A65FB68BA681A63B8
:102AEC00FB687A889A86FB687A88DA86FB687A684B
:102AFC009A63FB687A889A87FB687A88DA87FB681E
:102B0C00DB68002B06D0FB68164A1A64FB68164A71
:102B1C005A6405E0FB68154A1A64FB68144A5A6447
:102B2C00FB681B681B6803F04003402B07D0FB6855
:102B3C001B681A68FB681B6842F040021A60FB684D
:102B4C00002283F85020FB681B685A68FB681B68DE
:102B5C0042F0E0025A60002318461C37BD4680BC88
:102B6C00704700BF4D2E0008AD2E0008892D0008BF
:102B7C00ED2D000880B588B000AF78607B681B68CD
:102B8C005B68FB617B681B689B68BB61BB6903F07E
:102B9C004003002B0ED1BB6903F00103002B09D0BD
:102BAC00FB6903F04003002B04D07B681B6C786836
:102BBC009847B7E0BB6903F00203002B09D0FB690F
:102BCC0003F08003002B04D07B685B6C786898471B
:102BDC00A8E0BB6903F02003002B05D1BB6903F00F
:102BEC004003002B00F09E80FB6903F02003002BB8
:102BFC0000F09880BB6903F04003002B23D07B6866
:102C0C0093F85130DBB2032B11D07B685B6D43F032
:102C1C0004027B685A6500237B617B681B68DB6858
:102C2C007B617B681B689B687B617B690BE0002385
:102C3C003B617B681B68DB683B617B681B689B683E
:102C4C003B613B696EE0BB6903F02003002B14D0A1
:102C5C007B685B6D43F001027B685A650023FB6067
:102C6C007B681B689B68FB607B681B681A687B68C9
:102C7C001B6822F040021A60FB687B685B6D002BBE
:102C8C004FD07B681B685A687B681B6822F0E00297
:102C9C005A607B68012283F85120FB6903F0020320
:102CAC00002B04D1FB6903F00103002B34D07B68AB
:102CBC001B685A687B681B6822F003025A607B68A9
:102CCC00DB6C002B11D07B68DB6C184A5A637B6879
:102CDC00DB6C1846FEF792FE0346002B05D07B6892
:102CEC005B6D43F040027B685A657B689B6C002BE4
:102CFC0016D07B689B6C0D4A5A637B689B6C18469C
:102D0C00FEF77CFE0346002B0AD07B685B6D43F01C
:102D1C0040027B685A6503E0786800F012F800E026
:102D2C0000BF00BF2037BD4680BD00BF612D00082D
:102D3C0080B483B000AF786000BF0C37BD4680BC58
:102D4C00704780B483B000AF786000BF0C37BD46CD
:102D5C0080BC704780B584B000AF78607B685B6ADC
:102D6C00FB60FB680022DA87FB680022DA86F868D1
:102D7C00FFF7E7FF00BF1037BD4680BD80B582B0BE
:102D8C0000AF78607B681B6803F10C027B689B6B5F
:102D9C001278D2B21A707B689B6B5A1C7B689A6350
:102DAC007B68DB8F9BB2013B9AB27B68DA877B68CE
:102DBC00DB8F9BB2002B0FD17B681B685A687B683A
:102DCC001B6822F060025A607B68DB8E9BB2002B82
:102DDC0002D1786800F04EF900BF0837BD4680BDBF
:102DEC0080B582B000AF78607B681A6B7B681B681B
:102DFC000C3312781A707B681B6B5A1C7B681A6335
:102E0C007B68DB8E9BB2013B9AB27B68DA867B686F
:102E1C00DB8E9BB2002B0FD17B681B685A687B68DA
:102E2C001B6822F080025A607B68DB8F9BB2002B00
:102E3C0002D1786800F01EF900BF0837BD4680BD8E
:102E4C0080B582B000AF78607B681B68DA687B68FD
:102E5C009B6B92B21A807B689B6B9A1C7B689A6303
:102E6C007B68DB8F9BB2013B9AB27B68DA877B680D
:102E7C00DB8F9BB2002B0FD17B681B685A687B6879
:102E8C001B6822F040025A607B68DB8E9BB2002BE1
:102E9C0002D1786800F0EEF800BF0837BD4680BD5F
:102EAC0080B582B000AF78607B681B6B1A887B683A
:102EBC001B68DA607B681B6B9A1C7B681A637B68E7
:102ECC00DB8E9BB2013B9AB27B68DA867B68DB8E29
:102EDC009BB2002B0FD17B681B685A687B681B6800
:102EEC0022F080025A607B68DB8F9BB2002B02D1F0
:102EFC00786800F0BFF800BF0837BD4680BD000001
:102F0C0080B588B000AFF860B9603B601346FB71C8
:102F1C00FDF7E0FF0246BB6A9B1A3A681344FB615B
:102F2C00FDF7D8FFB861394B1B685B011B0DFA69C3
:102F3C0002FB03F37B6154E03B68B3F1FF3F50D0DD
:102F4C00FDF7C8FF0246BB69D31AFA699A4202D947
:102F5C00FB69002B3DD1FB681B685A68FB681B683A
:102F6C0022F0E0025A60FB685B68B3F5827F11D1F6
:102F7C00FB689B68B3F5004F04D0FB689B68B3F506
:102F8C00806F07D1FB681B681A68FB681B6822F00E
:102F9C0040021A60FB689B6AB3F5005F0FD1FB68B7
:102FAC001B681A68FB681B6822F400521A60FB68E5
:102FBC001B681A68FB681B6842F400521A60FB68B5
:102FCC00012283F85120FB68002283F85020032350
:102FDC0017E07B69002B01D10023FB617B69013B6E
:102FEC007B61FB681B689A68BB681340BA689A429D
:102FFC000CBF01230023DBB21A46FB799A429BD10A
:10300C00002318462037BD4680BD00BF08000020B5
:10301C0080B586B002AFF860B9607A607B680093C7
:10302C00BB6801220221F868FFF76AFF0346002BF8
:10303C0007D0FB685B6D43F02002FB685A650323E5
:10304C0013E07B680093BB6800228021F868FFF7CF
:10305C0057FF0346002B07D0FB685B6D43F0200243
:10306C00FB685A65032300E0002318461037BD4661
:10307C0080BD000080B586B000AF7860354B1B6812
:10308C00354AA2FB03235B0A642202FB03F33B6178
:10309C00FDF720FF78617B681B685A687B681B68AA
:1030AC0022F020025A603B69002B06D17B685B6DD5
:1030BC0043F020027B685A6509E03B69013B3B61A8
:1030CC007B681B689B6803F00203002BEBD07A69CA
:1030DC0064217868FFF79CFF0346002B05D07B68C2
:1030EC005B6D43F020027B685A657B689B68002B04
:1030FC000AD10023FB607B681B68DB68FB607B6884
:10310C001B689B68FB60FB687B685B6D002B15D1B3
:10311C007B6893F85130DBB2042B07D17B6801221A
:10312C0083F851207868FFF703FE0EE07B680122DC
:10313C0083F851207868FDF7CDFC06E07B6801220E
:10314C0083F851207868FFF7FCFD00BF1837BD46A7
:10315C0080BD00BF08000020F119760580B582B053
:10316C0000AF78607B68002B01D1012342E07B68C3
:10317C0093F84130DBB2002B06D17B68002283F838
:10318C0040207868FDF7A0FD7B68242283F841205D
:10319C007B681B68DA687B681B6822F40052DA6073
:1031AC00786800F02BF87B681B681A697B681B68D1
:1031BC0022F490421A617B681B685A697B681B6811
:1031CC0022F02A025A617B681B68DA687B681B68EC
:1031DC0042F40052DA607B6800225A647B68202239
:1031EC0083F841207B68202283F842207B680022F0
:1031FC005A63002318460837BD4680BD80B584B09D
:10320C0000AF78607B681B681B6923F440517B68B6
:10321C00DA687B681B680A431A617B689A687B686A
:10322C001B691A437B685B691343BB607B681B6833
:10323C00DB6823F4B05323F00C037A681268B96886
:10324C000B43D3607B681B685B6923F440717B681C
:10325C009A697B681B680A435A617B681B682C4A15
:10326C00934203D1FFF7D6F9F86002E0FFF7BEF9FD
:10327C00F860FA6813469B0013449A001A447B6862
:10328C005B689B00B2FBF3F3224AA2FB03235B09AE
:10329C001901FA6813469B0013449A001A447B6880
:1032AC005B689B00B2FBF3F21A4BA3FB02035B09B6
:1032BC00642000FB03F3D31A1B013233154AA2FB23
:1032CC0003235B0903F0F0031944FA6813469B00CF
:1032DC0013449A001A447B685B689B00B2FBF3F2C0
:1032EC000C4BA3FB02035B09642000FB03F3D31A12
:1032FC001B013233074AA2FB03235B0903F00F02C5
:10330C007B681B680A449A6000BF1037BD4680BDBD
:10331C00003801401F85EB5103460244934200D113
:10332C00704703F8011BF9E770B500260C4D0D4CE6
:10333C00641BA410A64209D100F01AF800260A4D0D
:10334C000A4C641BA410A64205D170BD55F8043B71
:10335C0098470136EEE755F8043B98470136F2E7FB
:10336C00D4330008D4330008D4330008D833000811
:10337C00F8B500BFF8BC08BC9E467047F8B500BF56
:08338C00F8BC08BC9E46704726
:103394000000000000000000010203040607080901
:1033A40000000000010203040203040506070809E3
:1033B4000A0B0C0D0E0F101001020000020304058D
:1033C400060708090A0B0C0D0E0F1010010200006D
:0433D40031010008BB
:0433D8000D010008DB
:1033DC00001100200021002000127A0010000000D3
:0433EC0001000000DC
:0400000508000DE5FD
:00000001FF
